{
  "abi": [
    {
      "type": "constructor",
      "inputs": [
        {
          "name": "initialOwner",
          "type": "address",
          "internalType": "address"
        }
      ],
      "stateMutability": "nonpayable"
    },
    {
      "type": "function",
      "name": "MAX_SUPPLY",
      "inputs": [],
      "outputs": [
        {
          "name": "",
          "type": "uint256",
          "internalType": "uint256"
        }
      ],
      "stateMutability": "view"
    },
    {
      "type": "function",
      "name": "approve",
      "inputs": [
        {
          "name": "to",
          "type": "address",
          "internalType": "address"
        },
        {
          "name": "tokenId",
          "type": "uint256",
          "internalType": "uint256"
        }
      ],
      "outputs": [],
      "stateMutability": "nonpayable"
    },
    {
      "type": "function",
      "name": "balanceOf",
      "inputs": [
        {
          "name": "owner",
          "type": "address",
          "internalType": "address"
        }
      ],
      "outputs": [
        {
          "name": "",
          "type": "uint256",
          "internalType": "uint256"
        }
      ],
      "stateMutability": "view"
    },
    {
      "type": "function",
      "name": "getApproved",
      "inputs": [
        {
          "name": "tokenId",
          "type": "uint256",
          "internalType": "uint256"
        }
      ],
      "outputs": [
        {
          "name": "",
          "type": "address",
          "internalType": "address"
        }
      ],
      "stateMutability": "view"
    },
    {
      "type": "function",
      "name": "isApprovedForAll",
      "inputs": [
        {
          "name": "owner",
          "type": "address",
          "internalType": "address"
        },
        {
          "name": "operator",
          "type": "address",
          "internalType": "address"
        }
      ],
      "outputs": [
        {
          "name": "",
          "type": "bool",
          "internalType": "bool"
        }
      ],
      "stateMutability": "view"
    },
    {
      "type": "function",
      "name": "name",
      "inputs": [],
      "outputs": [
        {
          "name": "",
          "type": "string",
          "internalType": "string"
        }
      ],
      "stateMutability": "view"
    },
    {
      "type": "function",
      "name": "owner",
      "inputs": [],
      "outputs": [
        {
          "name": "",
          "type": "address",
          "internalType": "address"
        }
      ],
      "stateMutability": "view"
    },
    {
      "type": "function",
      "name": "ownerOf",
      "inputs": [
        {
          "name": "tokenId",
          "type": "uint256",
          "internalType": "uint256"
        }
      ],
      "outputs": [
        {
          "name": "",
          "type": "address",
          "internalType": "address"
        }
      ],
      "stateMutability": "view"
    },
    {
      "type": "function",
      "name": "renounceOwnership",
      "inputs": [],
      "outputs": [],
      "stateMutability": "nonpayable"
    },
    {
      "type": "function",
      "name": "safeMint",
      "inputs": [
        {
          "name": "minter",
          "type": "address",
          "internalType": "address"
        }
      ],
      "outputs": [
        {
          "name": "",
          "type": "uint256",
          "internalType": "uint256"
        }
      ],
      "stateMutability": "nonpayable"
    },
    {
      "type": "function",
      "name": "safeTransferFrom",
      "inputs": [
        {
          "name": "from",
          "type": "address",
          "internalType": "address"
        },
        {
          "name": "to",
          "type": "address",
          "internalType": "address"
        },
        {
          "name": "tokenId",
          "type": "uint256",
          "internalType": "uint256"
        }
      ],
      "outputs": [],
      "stateMutability": "nonpayable"
    },
    {
      "type": "function",
      "name": "safeTransferFrom",
      "inputs": [
        {
          "name": "from",
          "type": "address",
          "internalType": "address"
        },
        {
          "name": "to",
          "type": "address",
          "internalType": "address"
        },
        {
          "name": "tokenId",
          "type": "uint256",
          "internalType": "uint256"
        },
        {
          "name": "data",
          "type": "bytes",
          "internalType": "bytes"
        }
      ],
      "outputs": [],
      "stateMutability": "nonpayable"
    },
    {
      "type": "function",
      "name": "setApprovalForAll",
      "inputs": [
        {
          "name": "operator",
          "type": "address",
          "internalType": "address"
        },
        {
          "name": "approved",
          "type": "bool",
          "internalType": "bool"
        }
      ],
      "outputs": [],
      "stateMutability": "nonpayable"
    },
    {
      "type": "function",
      "name": "supportsInterface",
      "inputs": [
        {
          "name": "interfaceId",
          "type": "bytes4",
          "internalType": "bytes4"
        }
      ],
      "outputs": [
        {
          "name": "",
          "type": "bool",
          "internalType": "bool"
        }
      ],
      "stateMutability": "view"
    },
    {
      "type": "function",
      "name": "symbol",
      "inputs": [],
      "outputs": [
        {
          "name": "",
          "type": "string",
          "internalType": "string"
        }
      ],
      "stateMutability": "view"
    },
    {
      "type": "function",
      "name": "tokenURI",
      "inputs": [
        {
          "name": "tokenId",
          "type": "uint256",
          "internalType": "uint256"
        }
      ],
      "outputs": [
        {
          "name": "",
          "type": "string",
          "internalType": "string"
        }
      ],
      "stateMutability": "view"
    },
    {
      "type": "function",
      "name": "transferFrom",
      "inputs": [
        {
          "name": "from",
          "type": "address",
          "internalType": "address"
        },
        {
          "name": "to",
          "type": "address",
          "internalType": "address"
        },
        {
          "name": "tokenId",
          "type": "uint256",
          "internalType": "uint256"
        }
      ],
      "outputs": [],
      "stateMutability": "nonpayable"
    },
    {
      "type": "function",
      "name": "transferOwnership",
      "inputs": [
        {
          "name": "newOwner",
          "type": "address",
          "internalType": "address"
        }
      ],
      "outputs": [],
      "stateMutability": "nonpayable"
    },
    {
      "type": "event",
      "name": "Approval",
      "inputs": [
        {
          "name": "owner",
          "type": "address",
          "indexed": true,
          "internalType": "address"
        },
        {
          "name": "approved",
          "type": "address",
          "indexed": true,
          "internalType": "address"
        },
        {
          "name": "tokenId",
          "type": "uint256",
          "indexed": true,
          "internalType": "uint256"
        }
      ],
      "anonymous": false
    },
    {
      "type": "event",
      "name": "ApprovalForAll",
      "inputs": [
        {
          "name": "owner",
          "type": "address",
          "indexed": true,
          "internalType": "address"
        },
        {
          "name": "operator",
          "type": "address",
          "indexed": true,
          "internalType": "address"
        },
        {
          "name": "approved",
          "type": "bool",
          "indexed": false,
          "internalType": "bool"
        }
      ],
      "anonymous": false
    },
    {
      "type": "event",
      "name": "OwnershipTransferred",
      "inputs": [
        {
          "name": "previousOwner",
          "type": "address",
          "indexed": true,
          "internalType": "address"
        },
        {
          "name": "newOwner",
          "type": "address",
          "indexed": true,
          "internalType": "address"
        }
      ],
      "anonymous": false
    },
    {
      "type": "event",
      "name": "Transfer",
      "inputs": [
        {
          "name": "from",
          "type": "address",
          "indexed": true,
          "internalType": "address"
        },
        {
          "name": "to",
          "type": "address",
          "indexed": true,
          "internalType": "address"
        },
        {
          "name": "tokenId",
          "type": "uint256",
          "indexed": true,
          "internalType": "uint256"
        }
      ],
      "anonymous": false
    },
    {
      "type": "error",
      "name": "ERC721IncorrectOwner",
      "inputs": [
        {
          "name": "sender",
          "type": "address",
          "internalType": "address"
        },
        {
          "name": "tokenId",
          "type": "uint256",
          "internalType": "uint256"
        },
        {
          "name": "owner",
          "type": "address",
          "internalType": "address"
        }
      ]
    },
    {
      "type": "error",
      "name": "ERC721InsufficientApproval",
      "inputs": [
        {
          "name": "operator",
          "type": "address",
          "internalType": "address"
        },
        {
          "name": "tokenId",
          "type": "uint256",
          "internalType": "uint256"
        }
      ]
    },
    {
      "type": "error",
      "name": "ERC721InvalidApprover",
      "inputs": [
        {
          "name": "approver",
          "type": "address",
          "internalType": "address"
        }
      ]
    },
    {
      "type": "error",
      "name": "ERC721InvalidOperator",
      "inputs": [
        {
          "name": "operator",
          "type": "address",
          "internalType": "address"
        }
      ]
    },
    {
      "type": "error",
      "name": "ERC721InvalidOwner",
      "inputs": [
        {
          "name": "owner",
          "type": "address",
          "internalType": "address"
        }
      ]
    },
    {
      "type": "error",
      "name": "ERC721InvalidReceiver",
      "inputs": [
        {
          "name": "receiver",
          "type": "address",
          "internalType": "address"
        }
      ]
    },
    {
      "type": "error",
      "name": "ERC721InvalidSender",
      "inputs": [
        {
          "name": "sender",
          "type": "address",
          "internalType": "address"
        }
      ]
    },
    {
      "type": "error",
      "name": "ERC721NonexistentToken",
      "inputs": [
        {
          "name": "tokenId",
          "type": "uint256",
          "internalType": "uint256"
        }
      ]
    },
    {
      "type": "error",
      "name": "OwnableInvalidOwner",
      "inputs": [
        {
          "name": "owner",
          "type": "address",
          "internalType": "address"
        }
      ]
    },
    {
      "type": "error",
      "name": "OwnableUnauthorizedAccount",
      "inputs": [
        {
          "name": "account",
          "type": "address",
          "internalType": "address"
        }
      ]
    }
  ],
  "bytecode": {
    "object": "0x608060405234801561000f575f5ffd5b5060405161283d38038061283d83398181016040528101906100319190610266565b806040518060400160405280600881526020017f436c6f636b4e46540000000000000000000000000000000000000000000000008152506040518060400160405280600481526020017f434e465400000000000000000000000000000000000000000000000000000000815250815f90816100ac91906104ce565b5080600190816100bc91906104ce565b5050505f73ffffffffffffffffffffffffffffffffffffffff168173ffffffffffffffffffffffffffffffffffffffff160361012f575f6040517f1e4fbdf700000000000000000000000000000000000000000000000000000000815260040161012691906105ac565b60405180910390fd5b61013e8161014560201b60201c565b50506105c5565b5f60065f9054906101000a900473ffffffffffffffffffffffffffffffffffffffff1690508160065f6101000a81548173ffffffffffffffffffffffffffffffffffffffff021916908373ffffffffffffffffffffffffffffffffffffffff1602179055508173ffffffffffffffffffffffffffffffffffffffff168173ffffffffffffffffffffffffffffffffffffffff167f8be0079c531659141344cd1fd0a4f28419497f9722a3daafe3b4186f6b6457e060405160405180910390a35050565b5f5ffd5b5f73ffffffffffffffffffffffffffffffffffffffff82169050919050565b5f6102358261020c565b9050919050565b6102458161022b565b811461024f575f5ffd5b50565b5f815190506102608161023c565b92915050565b5f6020828403121561027b5761027a610208565b5b5f61028884828501610252565b91505092915050565b5f81519050919050565b7f4e487b71000000000000000000000000000000000000000000000000000000005f52604160045260245ffd5b7f4e487b71000000000000000000000000000000000000000000000000000000005f52602260045260245ffd5b5f600282049050600182168061030c57607f821691505b60208210810361031f5761031e6102c8565b5b50919050565b5f819050815f5260205f209050919050565b5f6020601f8301049050919050565b5f82821b905092915050565b5f600883026103817fffffffffffffffffffffffffffffffffffffffffffffffffffffffffffffffff82610346565b61038b8683610346565b95508019841693508086168417925050509392505050565b5f819050919050565b5f819050919050565b5f6103cf6103ca6103c5846103a3565b6103ac565b6103a3565b9050919050565b5f819050919050565b6103e8836103b5565b6103fc6103f4826103d6565b848454610352565b825550505050565b5f5f905090565b610413610404565b61041e8184846103df565b505050565b5b81811015610441576104365f8261040b565b600181019050610424565b5050565b601f8211156104865761045781610325565b61046084610337565b8101602085101561046f578190505b61048361047b85610337565b830182610423565b50505b505050565b5f82821c905092915050565b5f6104a65f198460080261048b565b1980831691505092915050565b5f6104be8383610497565b9150826002028217905092915050565b6104d782610291565b67ffffffffffffffff8111156104f0576104ef61029b565b5b6104fa82546102f5565b610505828285610445565b5f60209050601f831160018114610536575f8415610524578287015190505b61052e85826104b3565b865550610595565b601f19841661054486610325565b5f5b8281101561056b57848901518255600182019150602085019450602081019050610546565b868310156105885784890151610584601f891682610497565b8355505b6001600288020188555050505b505050505050565b6105a68161022b565b82525050565b5f6020820190506105bf5f83018461059d565b92915050565b61226b806105d25f395ff3fe608060405234801561000f575f5ffd5b5060043610610114575f3560e01c806370a08231116100a0578063a22cb4651161006f578063a22cb465146102de578063b88d4fde146102fa578063c87b56dd14610316578063e985e9c514610346578063f2fde38b1461037657610114565b806370a0823114610268578063715018a6146102985780638da5cb5b146102a257806395d89b41146102c057610114565b806323b872dd116100e757806323b872dd146101b257806332cb6b0c146101ce57806340d097c3146101ec57806342842e0e1461021c5780636352211e1461023857610114565b806301ffc9a71461011857806306fdde0314610148578063081812fc14610166578063095ea7b314610196575b5f5ffd5b610132600480360381019061012d9190611951565b610392565b60405161013f9190611996565b60405180910390f35b610150610473565b60405161015d9190611a1f565b60405180910390f35b610180600480360381019061017b9190611a72565b610502565b60405161018d9190611adc565b60405180910390f35b6101b060048036038101906101ab9190611b1f565b61051d565b005b6101cc60048036038101906101c79190611b5d565b610533565b005b6101d6610632565b6040516101e39190611bbc565b60405180910390f35b61020660048036038101906102019190611bd5565b610637565b6040516102139190611bbc565b60405180910390f35b61023660048036038101906102319190611b5d565b6106a9565b005b610252600480360381019061024d9190611a72565b6106c8565b60405161025f9190611adc565b60405180910390f35b610282600480360381019061027d9190611bd5565b6106d9565b60405161028f9190611bbc565b60405180910390f35b6102a061078f565b005b6102aa6107a2565b6040516102b79190611adc565b60405180910390f35b6102c86107ca565b6040516102d59190611a1f565b60405180910390f35b6102f860048036038101906102f39190611c2a565b61085a565b005b610314600480360381019061030f9190611d94565b610870565b005b610330600480360381019061032b9190611a72565b610895565b60405161033d9190611a1f565b60405180910390f35b610360600480360381019061035b9190611e14565b610945565b60405161036d9190611996565b60405180910390f35b610390600480360381019061038b9190611bd5565b6109d3565b005b5f7f80ac58cd000000000000000000000000000000000000000000000000000000007bffffffffffffffffffffffffffffffffffffffffffffffffffffffff1916827bffffffffffffffffffffffffffffffffffffffffffffffffffffffff1916148061045c57507f5b5e139f000000000000000000000000000000000000000000000000000000007bffffffffffffffffffffffffffffffffffffffffffffffffffffffff1916827bffffffffffffffffffffffffffffffffffffffffffffffffffffffff1916145b8061046c575061046b82610a57565b5b9050919050565b60605f805461048190611e7f565b80601f01602080910402602001604051908101604052809291908181526020018280546104ad90611e7f565b80156104f85780601f106104cf576101008083540402835291602001916104f8565b820191905f5260205f20905b8154815290600101906020018083116104db57829003601f168201915b5050505050905090565b5f61050c82610ac0565b5061051682610b46565b9050919050565b61052f828261052a610b7f565b610b86565b5050565b5f73ffffffffffffffffffffffffffffffffffffffff168273ffffffffffffffffffffffffffffffffffffffff16036105a3575f6040517f64a0ae9200000000000000000000000000000000000000000000000000000000815260040161059a9190611adc565b60405180910390fd5b5f6105b683836105b1610b7f565b610b98565b90508373ffffffffffffffffffffffffffffffffffffffff168173ffffffffffffffffffffffffffffffffffffffff161461062c578382826040517f64283d7b00000000000000000000000000000000000000000000000000000000815260040161062393929190611eaf565b60405180910390fd5b50505050565b600a81565b5f600a6007541061067d576040517f08c379a000000000000000000000000000000000000000000000000000000000815260040161067490611f2e565b60405180910390fd5b5f60075f81548092919061069090611f79565b9190505590506106a08382610da3565b80915050919050565b6106c383838360405180602001604052805f815250610870565b505050565b5f6106d282610ac0565b9050919050565b5f5f73ffffffffffffffffffffffffffffffffffffffff168273ffffffffffffffffffffffffffffffffffffffff160361074a575f6040517f89c62b640000000000000000000000000000000000000000000000000000000081526004016107419190611adc565b60405180910390fd5b60035f8373ffffffffffffffffffffffffffffffffffffffff1673ffffffffffffffffffffffffffffffffffffffff1681526020019081526020015f20549050919050565b610797610dc0565b6107a05f610e47565b565b5f60065f9054906101000a900473ffffffffffffffffffffffffffffffffffffffff16905090565b6060600180546107d990611e7f565b80601f016020809104026020016040519081016040528092919081815260200182805461080590611e7f565b80156108505780601f1061082757610100808354040283529160200191610850565b820191905f5260205f20905b81548152906001019060200180831161083357829003601f168201915b5050505050905090565b61086c610865610b7f565b8383610f0a565b5050565b61087b848484610533565b61088f610886610b7f565b85858585611073565b50505050565b60605f73ffffffffffffffffffffffffffffffffffffffff166108b78361121f565b73ffffffffffffffffffffffffffffffffffffffff160361090d576040517f08c379a00000000000000000000000000000000000000000000000000000000081526004016109049061200a565b60405180910390fd5b610915611258565b61091e83611278565b60405160200161092f929190612088565b6040516020818303038152906040529050919050565b5f60055f8473ffffffffffffffffffffffffffffffffffffffff1673ffffffffffffffffffffffffffffffffffffffff1681526020019081526020015f205f8373ffffffffffffffffffffffffffffffffffffffff1673ffffffffffffffffffffffffffffffffffffffff1681526020019081526020015f205f9054906101000a900460ff16905092915050565b6109db610dc0565b5f73ffffffffffffffffffffffffffffffffffffffff168173ffffffffffffffffffffffffffffffffffffffff1603610a4b575f6040517f1e4fbdf7000000000000000000000000000000000000000000000000000000008152600401610a429190611adc565b60405180910390fd5b610a5481610e47565b50565b5f7f01ffc9a7000000000000000000000000000000000000000000000000000000007bffffffffffffffffffffffffffffffffffffffffffffffffffffffff1916827bffffffffffffffffffffffffffffffffffffffffffffffffffffffff1916149050919050565b5f5f610acb8361121f565b90505f73ffffffffffffffffffffffffffffffffffffffff168173ffffffffffffffffffffffffffffffffffffffff1603610b3d57826040517f7e273289000000000000000000000000000000000000000000000000000000008152600401610b349190611bbc565b60405180910390fd5b80915050919050565b5f60045f8381526020019081526020015f205f9054906101000a900473ffffffffffffffffffffffffffffffffffffffff169050919050565b5f33905090565b610b938383836001611342565b505050565b5f5f610ba38461121f565b90505f73ffffffffffffffffffffffffffffffffffffffff168373ffffffffffffffffffffffffffffffffffffffff1614610be457610be3818486611501565b5b5f73ffffffffffffffffffffffffffffffffffffffff168173ffffffffffffffffffffffffffffffffffffffff1614610c6f57610c235f855f5f611342565b600160035f8373ffffffffffffffffffffffffffffffffffffffff1673ffffffffffffffffffffffffffffffffffffffff1681526020019081526020015f205f82825403925050819055505b5f73ffffffffffffffffffffffffffffffffffffffff168573ffffffffffffffffffffffffffffffffffffffff1614610cee57600160035f8773ffffffffffffffffffffffffffffffffffffffff1673ffffffffffffffffffffffffffffffffffffffff1681526020019081526020015f205f82825401925050819055505b8460025f8681526020019081526020015f205f6101000a81548173ffffffffffffffffffffffffffffffffffffffff021916908373ffffffffffffffffffffffffffffffffffffffff160217905550838573ffffffffffffffffffffffffffffffffffffffff168273ffffffffffffffffffffffffffffffffffffffff167fddf252ad1be2c89b69c2b068fc378daa952ba7f163c4a11628f55a4df523b3ef60405160405180910390a4809150509392505050565b610dbc828260405180602001604052805f8152506115c4565b5050565b610dc8610b7f565b73ffffffffffffffffffffffffffffffffffffffff16610de66107a2565b73ffffffffffffffffffffffffffffffffffffffff1614610e4557610e09610b7f565b6040517f118cdaa7000000000000000000000000000000000000000000000000000000008152600401610e3c9190611adc565b60405180910390fd5b565b5f60065f9054906101000a900473ffffffffffffffffffffffffffffffffffffffff1690508160065f6101000a81548173ffffffffffffffffffffffffffffffffffffffff021916908373ffffffffffffffffffffffffffffffffffffffff1602179055508173ffffffffffffffffffffffffffffffffffffffff168173ffffffffffffffffffffffffffffffffffffffff167f8be0079c531659141344cd1fd0a4f28419497f9722a3daafe3b4186f6b6457e060405160405180910390a35050565b5f73ffffffffffffffffffffffffffffffffffffffff168273ffffffffffffffffffffffffffffffffffffffff1603610f7a57816040517f5b08ba18000000000000000000000000000000000000000000000000000000008152600401610f719190611adc565b60405180910390fd5b8060055f8573ffffffffffffffffffffffffffffffffffffffff1673ffffffffffffffffffffffffffffffffffffffff1681526020019081526020015f205f8473ffffffffffffffffffffffffffffffffffffffff1673ffffffffffffffffffffffffffffffffffffffff1681526020019081526020015f205f6101000a81548160ff0219169083151502179055508173ffffffffffffffffffffffffffffffffffffffff168373ffffffffffffffffffffffffffffffffffffffff167f17307eab39ab6107e8899845ad3d59bd9653f200f220920489ca2b5937696c31836040516110669190611996565b60405180910390a3505050565b5f8373ffffffffffffffffffffffffffffffffffffffff163b1115611218578273ffffffffffffffffffffffffffffffffffffffff1663150b7a02868685856040518563ffffffff1660e01b81526004016110d1949392919061210c565b6020604051808303815f875af192505050801561110c57506040513d601f19601f82011682018060405250810190611109919061216a565b60015b61118d573d805f811461113a576040519150601f19603f3d011682016040523d82523d5f602084013e61113f565b606091505b505f81510361118557836040517f64a0ae9200000000000000000000000000000000000000000000000000000000815260040161117c9190611adc565b60405180910390fd5b805160208201fd5b63150b7a0260e01b7bffffffffffffffffffffffffffffffffffffffffffffffffffffffff1916817bffffffffffffffffffffffffffffffffffffffffffffffffffffffff19161461121657836040517f64a0ae9200000000000000000000000000000000000000000000000000000000815260040161120d9190611adc565b60405180910390fd5b505b5050505050565b5f60025f8381526020019081526020015f205f9054906101000a900473ffffffffffffffffffffffffffffffffffffffff169050919050565b60606040518060800160405280604c81526020016121ea604c9139905090565b60605f6001611286846115e7565b0190505f8167ffffffffffffffff8111156112a4576112a3611c70565b5b6040519080825280601f01601f1916602001820160405280156112d65781602001600182028036833780820191505090505b5090505f82602083010190505b600115611337578080600190039150507f3031323334353637383961626364656600000000000000000000000000000000600a86061a8153600a858161132c5761132b612195565b5b0494505f85036112e3575b819350505050919050565b808061137a57505f73ffffffffffffffffffffffffffffffffffffffff168273ffffffffffffffffffffffffffffffffffffffff1614155b156114ac575f61138984610ac0565b90505f73ffffffffffffffffffffffffffffffffffffffff168373ffffffffffffffffffffffffffffffffffffffff16141580156113f357508273ffffffffffffffffffffffffffffffffffffffff168173ffffffffffffffffffffffffffffffffffffffff1614155b801561140657506114048184610945565b155b1561144857826040517fa9fbf51f00000000000000000000000000000000000000000000000000000000815260040161143f9190611adc565b60405180910390fd5b81156114aa57838573ffffffffffffffffffffffffffffffffffffffff168273ffffffffffffffffffffffffffffffffffffffff167f8c5be1e5ebec7d5bd14f71427d1e84f3dd0314c0f7b2291e5b200ac8c7c3b92560405160405180910390a45b505b8360045f8581526020019081526020015f205f6101000a81548173ffffffffffffffffffffffffffffffffffffffff021916908373ffffffffffffffffffffffffffffffffffffffff16021790555050505050565b61150c838383611738565b6115bf575f73ffffffffffffffffffffffffffffffffffffffff168373ffffffffffffffffffffffffffffffffffffffff160361158057806040517f7e2732890000000000000000000000000000000000000000000000000000000081526004016115779190611bbc565b60405180910390fd5b81816040517f177e802f0000000000000000000000000000000000000000000000000000000081526004016115b69291906121c2565b60405180910390fd5b505050565b6115ce83836117f8565b6115e26115d9610b7f565b5f858585611073565b505050565b5f5f5f90507a184f03e93ff9f4daa797ed6e38ed64bf6a1f0100000000000000008310611643577a184f03e93ff9f4daa797ed6e38ed64bf6a1f010000000000000000838161163957611638612195565b5b0492506040810190505b6d04ee2d6d415b85acef81000000008310611680576d04ee2d6d415b85acef8100000000838161167657611675612195565b5b0492506020810190505b662386f26fc1000083106116af57662386f26fc1000083816116a5576116a4612195565b5b0492506010810190505b6305f5e10083106116d8576305f5e10083816116ce576116cd612195565b5b0492506008810190505b61271083106116fd5761271083816116f3576116f2612195565b5b0492506004810190505b60648310611720576064838161171657611715612195565b5b0492506002810190505b600a831061172f576001810190505b80915050919050565b5f5f73ffffffffffffffffffffffffffffffffffffffff168373ffffffffffffffffffffffffffffffffffffffff16141580156117ef57508273ffffffffffffffffffffffffffffffffffffffff168473ffffffffffffffffffffffffffffffffffffffff1614806117b057506117af8484610945565b5b806117ee57508273ffffffffffffffffffffffffffffffffffffffff166117d683610b46565b73ffffffffffffffffffffffffffffffffffffffff16145b5b90509392505050565b5f73ffffffffffffffffffffffffffffffffffffffff168273ffffffffffffffffffffffffffffffffffffffff1603611868575f6040517f64a0ae9200000000000000000000000000000000000000000000000000000000815260040161185f9190611adc565b60405180910390fd5b5f61187483835f610b98565b90505f73ffffffffffffffffffffffffffffffffffffffff168173ffffffffffffffffffffffffffffffffffffffff16146118e6575f6040517f73c6ac6e0000000000000000000000000000000000000000000000000000000081526004016118dd9190611adc565b60405180910390fd5b505050565b5f604051905090565b5f5ffd5b5f5ffd5b5f7fffffffff0000000000000000000000000000000000000000000000000000000082169050919050565b611930816118fc565b811461193a575f5ffd5b50565b5f8135905061194b81611927565b92915050565b5f60208284031215611966576119656118f4565b5b5f6119738482850161193d565b91505092915050565b5f8115159050919050565b6119908161197c565b82525050565b5f6020820190506119a95f830184611987565b92915050565b5f81519050919050565b5f82825260208201905092915050565b8281835e5f83830152505050565b5f601f19601f8301169050919050565b5f6119f1826119af565b6119fb81856119b9565b9350611a0b8185602086016119c9565b611a14816119d7565b840191505092915050565b5f6020820190508181035f830152611a3781846119e7565b905092915050565b5f819050919050565b611a5181611a3f565b8114611a5b575f5ffd5b50565b5f81359050611a6c81611a48565b92915050565b5f60208284031215611a8757611a866118f4565b5b5f611a9484828501611a5e565b91505092915050565b5f73ffffffffffffffffffffffffffffffffffffffff82169050919050565b5f611ac682611a9d565b9050919050565b611ad681611abc565b82525050565b5f602082019050611aef5f830184611acd565b92915050565b611afe81611abc565b8114611b08575f5ffd5b50565b5f81359050611b1981611af5565b92915050565b5f5f60408385031215611b3557611b346118f4565b5b5f611b4285828601611b0b565b9250506020611b5385828601611a5e565b9150509250929050565b5f5f5f60608486031215611b7457611b736118f4565b5b5f611b8186828701611b0b565b9350506020611b9286828701611b0b565b9250506040611ba386828701611a5e565b9150509250925092565b611bb681611a3f565b82525050565b5f602082019050611bcf5f830184611bad565b92915050565b5f60208284031215611bea57611be96118f4565b5b5f611bf784828501611b0b565b91505092915050565b611c098161197c565b8114611c13575f5ffd5b50565b5f81359050611c2481611c00565b92915050565b5f5f60408385031215611c4057611c3f6118f4565b5b5f611c4d85828601611b0b565b9250506020611c5e85828601611c16565b9150509250929050565b5f5ffd5b5f5ffd5b7f4e487b71000000000000000000000000000000000000000000000000000000005f52604160045260245ffd5b611ca6826119d7565b810181811067ffffffffffffffff82111715611cc557611cc4611c70565b5b80604052505050565b5f611cd76118eb565b9050611ce38282611c9d565b919050565b5f67ffffffffffffffff821115611d0257611d01611c70565b5b611d0b826119d7565b9050602081019050919050565b828183375f83830152505050565b5f611d38611d3384611ce8565b611cce565b905082815260208101848484011115611d5457611d53611c6c565b5b611d5f848285611d18565b509392505050565b5f82601f830112611d7b57611d7a611c68565b5b8135611d8b848260208601611d26565b91505092915050565b5f5f5f5f60808587031215611dac57611dab6118f4565b5b5f611db987828801611b0b565b9450506020611dca87828801611b0b565b9350506040611ddb87828801611a5e565b925050606085013567ffffffffffffffff811115611dfc57611dfb6118f8565b5b611e0887828801611d67565b91505092959194509250565b5f5f60408385031215611e2a57611e296118f4565b5b5f611e3785828601611b0b565b9250506020611e4885828601611b0b565b9150509250929050565b7f4e487b71000000000000000000000000000000000000000000000000000000005f52602260045260245ffd5b5f6002820490506001821680611e9657607f821691505b602082108103611ea957611ea8611e52565b5b50919050565b5f606082019050611ec25f830186611acd565b611ecf6020830185611bad565b611edc6040830184611acd565b949350505050565b7f4d617820737570706c79207265616368656400000000000000000000000000005f82015250565b5f611f186012836119b9565b9150611f2382611ee4565b602082019050919050565b5f6020820190508181035f830152611f4581611f0c565b9050919050565b7f4e487b71000000000000000000000000000000000000000000000000000000005f52601160045260245ffd5b5f611f8382611a3f565b91507fffffffffffffffffffffffffffffffffffffffffffffffffffffffffffffffff8203611fb557611fb4611f4c565b5b600182019050919050565b7f55524920717565727920666f72206e6f6e6578697374656e7420746f6b656e005f82015250565b5f611ff4601f836119b9565b9150611fff82611fc0565b602082019050919050565b5f6020820190508181035f83015261202181611fe8565b9050919050565b5f81905092915050565b5f61203c826119af565b6120468185612028565b93506120568185602086016119c9565b80840191505092915050565b7f2e6a736f6e000000000000000000000000000000000000000000000000000000815250565b5f6120938285612032565b915061209f8284612032565b91506120aa82612062565b6005820191508190509392505050565b5f81519050919050565b5f82825260208201905092915050565b5f6120de826120ba565b6120e881856120c4565b93506120f88185602086016119c9565b612101816119d7565b840191505092915050565b5f60808201905061211f5f830187611acd565b61212c6020830186611acd565b6121396040830185611bad565b818103606083015261214b81846120d4565b905095945050505050565b5f8151905061216481611927565b92915050565b5f6020828403121561217f5761217e6118f4565b5b5f61218c84828501612156565b91505092915050565b7f4e487b71000000000000000000000000000000000000000000000000000000005f52601260045260245ffd5b5f6040820190506121d55f830185611acd565b6121e26020830184611bad565b939250505056fe697066733a2f2f6261667962656963356f6b75627a6e756b73696f6d6f33636766676b6d6277696b35353637786863686666376332707275353378323462766136692f6d657461646174612fa2646970667358221220c08f32059dbe9148439c2609c7a43bb7703d35d3d69b9ad99ed90fde6363b55d64736f6c634300081e0033",
    "linkReferences": {}
  },
  "methodIdentifiers": {
    "MAX_SUPPLY()": "32cb6b0c",
    "approve(address,uint256)": "095ea7b3",
    "balanceOf(address)": "70a08231",
    "getApproved(uint256)": "081812fc",
    "isApprovedForAll(address,address)": "e985e9c5",
    "name()": "06fdde03",
    "owner()": "8da5cb5b",
    "ownerOf(uint256)": "6352211e",
    "renounceOwnership()": "715018a6",
    "safeMint(address)": "40d097c3",
    "safeTransferFrom(address,address,uint256)": "42842e0e",
    "safeTransferFrom(address,address,uint256,bytes)": "b88d4fde",
    "setApprovalForAll(address,bool)": "a22cb465",
    "supportsInterface(bytes4)": "01ffc9a7",
    "symbol()": "95d89b41",
    "tokenURI(uint256)": "c87b56dd",
    "transferFrom(address,address,uint256)": "23b872dd",
    "transferOwnership(address)": "f2fde38b"
  },
  "id": 31
}